{
  "contractName": "GeoAsset",
  "abi": [
    {
      "inputs": [
        {
          "internalType": "string",
          "name": "_lat",
          "type": "string"
        },
        {
          "internalType": "string",
          "name": "_lon",
          "type": "string"
        }
      ],
      "payable": false,
      "stateMutability": "nonpayable",
      "type": "constructor"
    },
    {
      "anonymous": false,
      "inputs": [
        {
          "indexed": false,
          "internalType": "string",
          "name": "name",
          "type": "string"
        },
        {
          "indexed": false,
          "internalType": "address",
          "name": "account",
          "type": "address"
        },
        {
          "indexed": false,
          "internalType": "uint256",
          "name": "timestamp",
          "type": "uint256"
        }
      ],
      "name": "Action",
      "type": "event"
    },
    {
      "constant": true,
      "inputs": [],
      "name": "lat",
      "outputs": [
        {
          "internalType": "string",
          "name": "",
          "type": "string"
        }
      ],
      "payable": false,
      "stateMutability": "view",
      "type": "function"
    },
    {
      "constant": true,
      "inputs": [],
      "name": "lon",
      "outputs": [
        {
          "internalType": "string",
          "name": "",
          "type": "string"
        }
      ],
      "payable": false,
      "stateMutability": "view",
      "type": "function"
    },
    {
      "constant": true,
      "inputs": [],
      "name": "status",
      "outputs": [
        {
          "internalType": "enum GeoAsset.STATUSES",
          "name": "",
          "type": "uint8"
        }
      ],
      "payable": false,
      "stateMutability": "view",
      "type": "function"
    },
    {
      "constant": false,
      "inputs": [
        {
          "internalType": "string",
          "name": "_globalId",
          "type": "string"
        }
      ],
      "name": "update",
      "outputs": [],
      "payable": false,
      "stateMutability": "nonpayable",
      "type": "function"
    }
  ],
  "bytecode": "0x608060405234801561001057600080fd5b506040516109b03803806109b08339818101604052604081101561003357600080fd5b810190808051604051939291908464010000000082111561005357600080fd5b8382019150602082018581111561006957600080fd5b825186600182028301116401000000008211171561008657600080fd5b8083526020830192505050908051906020019080838360005b838110156100ba57808201518184015260208101905061009f565b50505050905090810190601f1680156100e75780820380516001836020036101000a031916815260200191505b506040526020018051604051939291908464010000000082111561010a57600080fd5b8382019150602082018581111561012057600080fd5b825186600182028301116401000000008211171561013d57600080fd5b8083526020830192505050908051906020019080838360005b83811015610171578082015181840152602081019050610156565b50505050905090810190601f16801561019e5780820380516001836020036101000a031916815260200191505b5060405250505033600160006101000a81548173ffffffffffffffffffffffffffffffffffffffff021916908373ffffffffffffffffffffffffffffffffffffffff1602179055506000600460006101000a81548160ff0219169083600181111561020557fe5b02179055508160029080519060200190610220929190610305565b508060039080519060200190610237929190610305565b507fa1017544ae1fb9374130ad8e34196bc75ae20b1f3d1057a420eb63b52fbbc359600160009054906101000a900473ffffffffffffffffffffffffffffffffffffffff164260405180806020018473ffffffffffffffffffffffffffffffffffffffff1673ffffffffffffffffffffffffffffffffffffffff168152602001838152602001828103825260078152602001807f4352454154454400000000000000000000000000000000000000000000000000815250602001935050505060405180910390a150506103aa565b828054600181600116156101000203166002900490600052602060002090601f016020900481019282601f1061034657805160ff1916838001178555610374565b82800160010185558215610374579182015b82811115610373578251825591602001919060010190610358565b5b5090506103819190610385565b5090565b6103a791905b808211156103a357600081600090555060010161038b565b5090565b90565b6105f7806103b96000396000f3fe608060405234801561001057600080fd5b506004361061004c5760003560e01c8063200d2ed2146100515780633d7403a31461007d5780634dee73c81461013857806355d576cc146101bb575b600080fd5b61005961023e565b6040518082600181111561006957fe5b60ff16815260200191505060405180910390f35b6101366004803603602081101561009357600080fd5b81019080803590602001906401000000008111156100b057600080fd5b8201836020820111156100c257600080fd5b803590602001918460018302840111640100000000831117156100e457600080fd5b91908080601f016020809104026020016040519081016040528093929190818152602001838380828437600081840152601f19601f820116905080830192505050505050509192919290505050610251565b005b6101406103e1565b6040518080602001828103825283818151815260200191508051906020019080838360005b83811015610180578082015181840152602081019050610165565b50505050905090810190601f1680156101ad5780820380516001836020036101000a031916815260200191505b509250505060405180910390f35b6101c361047f565b6040518080602001828103825283818151815260200191508051906020019080838360005b838110156102035780820151818401526020810190506101e8565b50505050905090810190601f1680156102305780820380516001836020036101000a031916815260200191505b509250505060405180910390f35b600460009054906101000a900460ff1681565b600160009054906101000a900473ffffffffffffffffffffffffffffffffffffffff1673ffffffffffffffffffffffffffffffffffffffff163373ffffffffffffffffffffffffffffffffffffffff16146102ab57600080fd5b600060018111156102b857fe5b600460009054906101000a900460ff1660018111156102d357fe5b146102dd57600080fd5b80600090805190602001906102f392919061051d565b506001600460006101000a81548160ff0219169083600181111561031357fe5b02179055507fa1017544ae1fb9374130ad8e34196bc75ae20b1f3d1057a420eb63b52fbbc359600160009054906101000a900473ffffffffffffffffffffffffffffffffffffffff164260405180806020018473ffffffffffffffffffffffffffffffffffffffff1673ffffffffffffffffffffffffffffffffffffffff168152602001838152602001828103825260088152602001807f434f4d504c455445000000000000000000000000000000000000000000000000815250602001935050505060405180910390a150565b60038054600181600116156101000203166002900480601f0160208091040260200160405190810160405280929190818152602001828054600181600116156101000203166002900480156104775780601f1061044c57610100808354040283529160200191610477565b820191906000526020600020905b81548152906001019060200180831161045a57829003601f168201915b505050505081565b60028054600181600116156101000203166002900480601f0160208091040260200160405190810160405280929190818152602001828054600181600116156101000203166002900480156105155780601f106104ea57610100808354040283529160200191610515565b820191906000526020600020905b8154815290600101906020018083116104f857829003601f168201915b505050505081565b828054600181600116156101000203166002900490600052602060002090601f016020900481019282601f1061055e57805160ff191683800117855561058c565b8280016001018555821561058c579182015b8281111561058b578251825591602001919060010190610570565b5b509050610599919061059d565b5090565b6105bf91905b808211156105bb5760008160009055506001016105a3565b5090565b9056fea265627a7a72315820570d4571be874de4d4bb50e099155af491a53191ae83fe8fcb65846964a076a064736f6c63430005100032",
  "source": "// SPDX-License-Identifier: MIT\npragma solidity >=0.4.22 <0.9.0;\n\ncontract GeoAsset {\n    \n    string globalId;\n    address user;\n    string public lat;\n    string public lon;\n    STATUSES public status;\n    \n    enum STATUSES {\n        CREATED,\n        COMPLETE\n    }\n    \n    event Action (\n        string name,\n        address account,\n        uint timestamp\n    );\n    \n    constructor(string memory _lat, string memory _lon) public {\n        user = msg.sender;\n        status = STATUSES.CREATED;\n        lat = _lat;\n        lon = _lon;\n        \n        emit Action(\"CREATED\", user, block.timestamp);\n    }\n    \n    \n    function update(string memory _globalId) public {\n        require(msg.sender == user);\n        require(status == STATUSES.CREATED);\n        \n        globalId = _globalId;\n        status = STATUSES.COMPLETE;\n        \n        emit Action(\"COMPLETE\", user, block.timestamp);\n    }\n}",
  "sourcePath": "/home/odoe/dev/blockchain-dev/arcgis-dapp/contracts/GeoAsset.sol",
  "compiler": {
    "name": "solc",
    "version": "0.5.16+commit.9c3226ce.Emscripten.clang"
  },
  "schemaVersion": "3.3.4",
  "updatedAt": "2021-05-02T23:35:37.343Z",
  "devdoc": {
    "methods": {}
  },
  "userdoc": {
    "methods": {}
  }
}